:020000040800F2
:10000000B8080020910100085B2C00083126000888
:10001000592C0008A70500089D34000800000000C6
:100020000000000000000000000000004D2F00084C
:10003000DF050008000000005D2C00084F2F0008BD
:10004000AB010008AB010008AB010008AB010008E0
:10005000AB010008AB010008AB01000881060008F5
:10006000AB010008AB010008AB010008AB010008C0
:10007000AB010008AB010008AB010008A9050008AE
:10008000AB010008AB010008AB010008AB010008A0
:10009000AB010008AB010008AB010008AB01000890
:1000A000AB010008AB010008AB010008AB01000880
:1000B000AB010008AB010008AB010008AB01000870
:1000C000AB010008AB010008AB010008AB01000860
:1000D000AB01000891340008AB010008AB01000837
:1000E000AB010008AB010008AB01000800F002F80A
:1000F00000F03FF80AA090E8000C82448344AAF183
:100100000107DA4501D100F034F8AFF2090EBAE880
:100110000F0013F0010F18BFFB1A43F0010318473B
:100120005844000078440000103A24BF78C878C1D1
:10013000FAD8520724BF30C830C144BF04680C60ED
:10014000704700000023002400250026103A28BF35
:1001500078C1FBD8520728BF30C148BF0B60704739
:10016000642900F07D80002070471FB51FBD10B5C9
:1001700010BD00F0B7F91146FFF7F7FF03F0FAFBE7
:1001800000F0D5F903B4FFF7F2FF03BC00F0D8F993
:100190000948804709480047FEE7FEE7FEE7FEE71B
:1001A000FEE7FEE7FEE7FEE7FEE7FEE70448054957
:1001B000054A064B70470000CF2F0008ED000008ED
:1001C000B8020020B8080020B8040020B8040020BD
:1001D0000FB41CB5074B06AA7B44694600900598EE
:1001E00000F05FF90020694600F06EF91CBC5DF874
:1001F00014FB0000ED0200002DE9F0410E4604461C
:10020000002020622046E168884730B3252805D0C9
:10021000D4E901219047206A401CF2E7E1682046BA
:1002200000278847050018D0A5F14100192802D8F9
:1002300020354FF400673246294620462760FFF7F5
:100240008FFF40B1012804D0F61D26F007060836BE
:10025000D8E7361DD6E72846DAE7206ABDE8F08100
:100260002DE9F0410646002410687529314616A58F
:1002700010D0AFF30080002802DA404213A507E057
:1002800031688A0701D512A502E0490704D511A5F6
:10029000012401E0AFF3008000210A2206F12407C7
:1002A00009E0B0FBF2FCB0FBF2F302FB1C003030C3
:1002B00078541846491C0028F3D123462A46304674
:1002C000BDE8F04100F08EB8000000002D000000F5
:1002D0002B0000002000000010B5431C02E010F8C5
:1002E000011B71B18107FAD14FF0013202C88C1A9B
:1002F0008C4314EAC211F9D0C01A0A0603D0C01EFA
:1003000010BDC01A10BD0A0401D0801E10BD090224
:10031000FCD0401E10BD10B5203AC0F00B80B1E8F3
:100320001850203AA0E81850B1E81850A0E818502A
:10033000BFF4F5AF5FEA027C24BFB1E81850A0E833
:10034000185044BF18C918C0BDE810405FEA827C4D
:1003500024BF51F8043B40F8043B08BF7047D20764
:1003600028BF31F8023B48BF11F8012B28BF20F805
:10037000023B48BF00F8012B70474FF0000200B568
:10038000134694469646203922BFA0E80C50A0E8B8
:100390000C50B1F12001BFF4F7AF090728BFA0E866
:1003A0000C5048BF0CC05DF804EB890028BF40F832
:1003B000042B08BF704748BF20F8022B11F0804F74
:1003C00018BF00F8012B704770477047704710B591
:1003D00000F080F8006810BD10B5044600F07AF80F
:1003E000046010BD2DE9F0470D469946924604463B
:1003F00000F124080168880604D5E06921F01001A5
:10040000216000E00120A84201DD471B00E0002739
:10041000A1697A1902EB0900081AA0612078C006C8
:1004200002D42046AFF30080002608E0D4E9012181
:100430001AF806009047206A401C761C20624E4540
:10044000F4DB2078C0060AD52046AFF3008006E032
:10045000D4E9012130209047206A401C2062381ED8
:10046000A7F10107F4DC07E0D4E9012118F8050041
:100470009047206A401C2062281EA5F10105F3DC8C
:100480002046AFF300802078000602D50220BDE8A8
:10049000F0870120FBE7000001694A1C026108782F
:1004A000704700B58FB0CDE90131002105910549B4
:1004B0007944CDE9031011466846FFF79DFE0FB061
:1004C00000BD0000E5FFFFFF0A6802F8010B0A60AB
:1004D00070470000004870475402002000487047F1
:1004E000540200207546FFF7F9FFAE460500694645
:1004F000534620F00700854618B020B5FFF756FE9A
:10050000BDE820404FF000064FF000074FF0000814
:100510004FF0000B21F00701AC46ACE8C009ACE895
:10052000C009ACE8C009ACE8C0098D46704710B5F9
:100530000446AFF300802046BDE81040FFF722BE1E
:1005400001491820ABBEFEE72600020070470000FC
:1005500070B5044600688168C943C90717D181682E
:1005600021F00101816000F04DFC05460AE000BF6A
:1005700000F048FC401B022804D920688068C04372
:10058000C00706D020688068C043C007F0D00020B4
:1005900070BDA06A40F01000A062E06A40F0010067
:1005A000E062012070BDFEE7014800F017BA0000CC
:1005B0001002002030B590F840500124AC40C56BCB
:1005C0006C60046863604368102B036803D0996013
:1005D0000068C26030BD9A600068C16030BD70477D
:1005E0002DE9FF4F8946044685B0984600204FF01C
:1005F000804103F011F806460D4600201E4903F025
:100600000BF832462B4603F029FB03F0BBFC834674
:1006100008EB090004EB9010001B401C00261FFA99
:1006200080FA354623E000BF04FA0BF040EA0900E7
:1006300080B203904946404602F0A7FF074607985C
:100640004FF47A713044CDE9000702910223A021D2
:100650000A48039A00F0A0FCA8EB07001FFA80F8F4
:10066000641CF019A4B24FF0000986B26D1C554508
:10067000DADB09B0BDE8F08F0000504050000020E8
:10068000022000F0BDBA72B6FEE70000F8B5002403
:10069000009490F824202546012A12D0012280F8E7
:1006A00024204A681F23072A0DD20668776B521E42
:1006B00002EB820293409F430B6893401F43776392
:1006C00019E00220F8BD06680D2A0AD2376BD21F46
:1006D00002EB820293409F430B6893401F433763B2
:1006E00009E0F76A0D3A02EB820293409F430B68E0
:1006F00093401F43F7620A68072306680A2A0AD351
:10070000F7680A3A02EB420293409F438B6893409A
:100710001F43F76008E0376902EB420293409F43B2
:100720008B6893401F4337610A68102A01D0112A51
:1007300020D1124B02689A4217D193681B0219D438
:10074000936843F4000393600968102912D10C499F
:100750000C4A0968B1FBF2F101EB8101490000E0AC
:10076000491E00910029FBD104E0816A41F020017B
:100770008162012480F824502046F8BD0024014005
:100780001C00002040420F002DE9F0414FF000070F
:1007900004003D467ED0A06A002628B9E66284F8AF
:1007A0002460204600F07EF82046FFF7D1FEA16AC3
:1007B00001F01001014304D0A06A40F01000A062D3
:1007C00068E0A16A21F4885141F00201A1626268E7
:1007D000E169237B0A4347EA43010A43A1684FF4D6
:1007E0008077B94208D0012906D0002194F814C0BE
:1007F000BCF1010F02D00AE03946F7E7F3B1A36A72
:1008000043F02003A362E36A43F00103E362236839
:10081000D3F804C02CF4694C4CEA010CC3F804C0B2
:1008200023689968DFF870C001EA0C0111439960F0
:10083000A168B9420BD0012909D00CE0DFF85CC0F7
:10084000A3690CEB43330B4343F40061DFE7218AD8
:100850000D05A5F580152168CB6A23F470032B43A1
:10086000CB62216889680E4B1940914208D1E6623B
:10087000A16A21F0020141F00101A162BDE8F0810D
:10088000A06A20F0020040F01000A062E06A40F090
:100890000100E0620120F1E7FDF7E1FF00E0FFFF6A
:1008A000FE0E1FFF00B585B000210091019102915D
:1008B000039100680E49884218D10E48816941F4BD
:1008C00000718161816901F400710491816941F0D5
:1008D000040181618069694600F0040004900120F0
:1008E000009003200190044800F096F905B000BD87
:1008F00000240140001002400008014010B590F8AB
:1009000021100022022905D00421816380F82020D3
:10091000012010BD01680B6823F00E030B60016815
:100920000B6823F001030B6090F84030C46B012189
:1009300001FA03F3636080F8211080F8202010464C
:1009400010BD000010B590F821100024022903D03A
:100950000421816301243DE001680A6822F00E024F
:100960000A6001680A6822F001020A601A4A0168F6
:10097000914201D1012121E0174A1432914201D163
:1009800010211BE0144A2832914201D1891515E04B
:10099000114A3C32914201D189140FE00E4A503283
:1009A000914202D14FF4803108E00B4A6432914207
:1009B00002D14FF4801101E04FF08071064A083AED
:1009C0005160012180F82110002180F82010416B36
:1009D00001B18847204610BD080002402DE9F05FB4
:1009E000C16B0C6801680B68D0F840C0042202FAA1
:1009F0000CF2494DDFF824A1494E4A4FDFF828B1E7
:100A0000DFF828E122422CD05A072AD50A6892063C
:100A100003D40A6822F004020A600168A94201D1E5
:100A2000042219E0514501D1402215E0B14202D122
:100A30004FF4806210E0B94202D14FF480420BE0E3
:100A4000594502D14FF4802206E0714502D14FF49E
:100A5000800201E04FF080622F4908394A60C16A84
:100A60003BE04FF0020808FA0CF818EA040F4FF0C8
:100A700000094FF0010235D05FEA837832D50B6868
:100A80009B0605D40B6823F00A030B6080F8212035
:100A90000168A94201D1022219E0514501D1202269
:100AA00015E0B14202D14FF4007210E0B94202D118
:100AB0004FF400520BE0594502D14FF4003206E0EA
:100AC000714502D14FF4001201E04FF0007212495B
:100AD00008394A6080F82090816A00291AD0BDE860
:100AE000F05F0847082505FA0CF5254212D01B07D0
:100AF00010D50B6823F00E030B6090F84010C36B09
:100B000002FA01F15960826380F8212080F8209078
:100B1000016BE2E7BDE8F09F080002401C000240C4
:100B20003000024044000240580002406C00024085
:100B300030B528B308C8134914221944B1FBF2F1A7
:100B40008900C16310498163022141771A6843F625
:100B5000F0718A43D0E900142143D0E902452C43C7
:100B6000214304692143446921438469214311439A
:100B7000196000214163012242770177084630BDA8
:100B8000012030BDF8FFFDBF0000024070B50446F3
:100B900090F82000002501280CD0012084F82000C6
:100BA00094F821600020012E06D084F82000022550
:100BB000284670BD022070BD022684F82160A06323
:100BC0002068066826F0010606602046FFF7F2FC62
:100BD000E06A00282068016802D041F00E0106E0BA
:100BE00021F0040101602068016841F00A01016000
:100BF0002068016841F001010160D9E770470000F9
:100C0000044910B50A68024202D00860FFF7F6FFF7
:100C100010BD0000140401402DE9F84FDFF8B89131
:100C20000024A9F1040B23460F2709F1040AABF1B4
:100C3000040EC9E00125A5402A40AA427DD1674E95
:100C4000D1F804C0ACEB0608B44532D014DCBCF1DA
:100C5000030F3AD009DCBCF1000F2AD0BCF1010F20
:100C60001CD0BCF1020F31D11DE0BCF1110F17D027
:100C7000BCF1120F2AD119E0B8F5881F19D006DC93
:100C8000B8F5803F15D0B8F5801F1FD111E0B8F539
:100C9000001F0ED0B8F5041F18D10AE0CB6815E08C
:100CA000CB681B1D12E0CB6808330FE0CB680C3318
:100CB0000CE08B682BB1012B4FF0080303D045618A
:100CC00004E0042302E0056100E00023FF2A01D8CC
:100CD000064601E000F104064FEA840501D9A5F1BA
:100CE0002005D6F8008007FA05FC28EA0C0803FA6C
:100CF00005F548EA0508C6F800804D68ED0062D5A4
:100D0000374DAE6946F00106AE61AD6924F00306C9
:100D100005F001050095334D06EB050CDCF8085095
:100D2000A607360F07FA06F825EA0805DFF8B880A7
:100D3000404503D14FF0000817E044E0DFF8AC80F5
:100D4000404502D14FF001080FE0DFF8A480404594
:100D500002D14FF0020808E0DFF89880404502D148
:100D60004FF0030801E04FF0040808FA06F848EADB
:100D70000508CCF808804D68D9F80060ED024D46B2
:100D800001D5164300E096432E604D68DAF8006006
:100D9000AD02554601D5164300E096432E604D68DE
:100DA000DBF80060AD035D4601D5164300E09643D5
:100DB0002E604D68DEF80060ED03754601D51643E0
:100DC00000E096432E60641C0D682A46E5407FF4DF
:100DD00031AFBDE8F88F0000080401400000111099
:100DE000001002400000014000080140000C0140DA
:100DF00000100140001401400AB10161704709046C
:100E0000FBE70000014880687047000010000020E8
:100E100070B5040025D094F83D00002520B984F871
:100E20003C50204600F0E0F9242084F83D00206882
:100E3000016821F0010101602068016841F400416E
:100E400001602068016821F40041016000F0F6FBB8
:100E50004D4A6168914201D84C4900E04C498842B2
:100E600001D2012070BD4B492368B0FBF1F15E68EF
:100E700026F03F060E435E606368934206D94FF446
:100E8000967359434FF47A73B1FBF3F12368491C0D
:100E90001E6A26F03F06314319626168914210D8FC
:100EA0004900401EB0FBF1F2521CC2F30B02042AAF
:100EB00001D2042022E0B0FBF1F0401CC0F30B0093
:100EC0001CE0A268F2B301EBC10303EB0116431E61
:100ED000B3FBF6F35B1C43F480431B0549D092B38C
:100EE00001EBC10202EB0111401EB0FBF1F0401C0E
:100EF000C0F30B0040F4804040F400402168CA6910
:100F00004CF6FF739A431043C861D4E907100143BC
:100F10002068026822F0C00211430160D4E9030195
:100F200001432068826848F2FF339A43114381608D
:100F3000D4E9050108432168CA6822F0FF02104382
:100F4000C86001E00EE016E02068016841F0010190
:100F500001602564202084F83D00256384F83E501C
:100F6000002070BD01EB4106431EB3FBF6F35B1C92
:100F7000B3E70120C2E701EB4101401EB0FBF1F0F5
:100F8000401CC0F30B00B7E7A086010080841E0060
:100F900000093D0040420F002DE9FF4F83B00025BE
:100FA000DDE910799A4693460446DDF848800095BD
:100FB000FFF728FF064694F83D0020287CD119232E
:100FC000012285492046009601F0C8FB0028F5D192
:100FD00094F83C0001286FD0012084F83C00206880
:100FE0000168C90703D1016841F00101016020686F
:100FF000016821F400610160222084F83D00402056
:1010000084F83E0025646762A4F82A90608D2085EC
:101010007248E062CDE9008653465A46204604995C
:1010200001F01EFB00287DD1208DDFF8B491202730
:1010300068B1012814D00228206801681ED041F44C
:10104000806101602068416980690090B6E0206895
:10105000416981690091016841F400710160ADE06E
:101060002068016821F48061016072B620684169DE
:1010700081690091016841F400710AE041F4006166
:10108000016072B62068416981690091016821F4AC
:101090008061016062B691E0032868D801280CD015
:1010A000022843464FF000024946204600960FD0E2
:1010B00001F054FBB0BB10E08BE0324641462046C5
:1010C00001F0F2FB70BB20680069616A08706CE097
:1010D00001F044FB30BB72B634E02068016821F4B3
:1010E0008061016072B620680069616A0870606A98
:1010F000401C6062208D401E2085608D401E6085F2
:10110000384846F2A8110068B0FBF1F0C0EBC0000F
:1011100000EB80000090401E009008D020684069DD
:10112000C04300E029E040070CD50098F3E744F8FD
:10113000305F6773A573206940F02000206162B6BC
:1011400025731AE02068016841F40071016020688D
:101150000069616A0870606A401C6062218D491EE6
:101160002185618D491E618562B621681BE032468A
:101170004146204601F098FB18B1012007B0BDE8B8
:10118000F08F20680069616A0870606A401C6062C4
:10119000218D491E2185618D491E618521684A691D
:1011A000D24352070AD409690170606A401C606228
:1011B000208D401E2085608D401E6085208D00287A
:1011C0007FF46AAF84F83D7084F83E5084F83C5058
:1011D000D4E70220D2E70000020010000000FFFF69
:1011E000040001001C00002010B586B00021009111
:1011F00001910291039100680F4988421AD10F4C66
:10120000A06940F00800A061A069694600F00800EC
:101210000490C02000901220019003200390084801
:10122000FFF7FAFCE06940F40010E061E06900F4C7
:101230000010049006B010BD0054004000100240A1
:10124000000C0140024881680278114481607047B7
:1012500010000020074810B5016841F0100101603E
:10126000032000F075F80F2000F006F800F024F8D5
:10127000002010BD0020024070B50D4D04464FF413
:101280007A712878B1FBF0F00A490968B1FBF0F0F7
:1012900000F0B5FE48B9102C07D200222146501E9E
:1012A00000F036F800206C6070BD012070BD0000B9
:1012B000100000201C0000200C4808B5816941F096
:1012C00001018161816901F001010091C16941F071
:1012D0008051C161C06900F08050009004484168AD
:1012E00021F0E06141F00071416008BD0010024052
:1012F00000000140002809DB00F01F02012191409D
:101300004009800000F1E020C0F8001170470000A3
:10131000F0B40E4B1B680C46C3F30223C3F1070560
:10132000042D00D90425191D072901D2002300E04E
:10133000DB1E012606FA05F1491E214099409E4018
:10134000761E16403143F0BC02F0A9B80CED00E067
:10135000064900F0070208684FF6FF03184040EA0C
:101360000220034A10430860704700000CED00E0C3
:101370000000FA05014901200862704700000E4292
:1013800010B501460020234C012922D0022939D072
:1013900010291DD161682268D20119D51E48C1F3F8
:1013A0008342C903805C0AD561681B4AC1F340418E
:1013B000921E515C194AB2FBF1F1484301E0184911
:1013C00048436168490203D440000321B0FBF1F0B7
:1013D00010BD226AC2F30121012903D1920701D570
:1013E000C80310BD022905D1626A920702D549F6E9
:1013F000404010BD0329FCD121688903F9D54FF283
:10140000244010BD00F02AF96168C1F38131491C04
:101410004900DBE7001002401045000800127A0086
:1014200000093D002DE9F84305460078354CC0071A
:1014300054D0E0690026C00008D4E06940F0805034
:10144000E061E069012600F0805000902E480168BC
:10145000C90512D40168804641F480710160FFF72C
:10146000D1FC074605E000BFFFF7CCFCC01B642899
:1014700023D8D8F80000C005F6D5206A10F44070D3
:1014800021D0A98801F4407181421CD0206A1F49F3
:10149000012220F440700A6000220A602062C00726
:1014A00011D0FFF7AFFC074641F2883808E000BFD3
:1014B000FFF7A8FCC11B414502D90320BDE8F88312
:1014C000206A8007F4D5206A696820F440700843D8
:1014D00020621EB1E06920F08050E061287880072A
:1014E00005D56068A96820F440400843606028780A
:1014F000C00605D56068E96820F480000843606094
:101500000020DBE70010024000700040400442422F
:101510002DE9F0470F46050061D0434E306800F0DA
:101520000700B84209D2306820F007003843306025
:10153000306800F00700B84251D128683B4C810761
:1015400012D5400703D5606840F4E06060602878F9
:10155000000703D5606840F4605060606068A96867
:1015600020F0F000084360602878C00728D0686841
:10157000012810D02168022810D0890700292EDA0E
:10158000616821F0030101436160FFF73BFC804685
:1015900041F288390DE021688903EFE78901EDE721
:1015A000FFF730FCA0EB0801494502D90320BDE854
:1015B000F0876068696800F00C00B0EB810FEFD134
:1015C000306800F00700B8420BD9306820F00700FF
:1015D00038433060306800F00700B84201D0012085
:1015E000E5E72878400705D56068E96820F4E06001
:1015F000084360602878000706D56068296920F4F0
:10160000605040EAC100606000F038F86168084A44
:10161000C1F30311515CC8400649086006480068E0
:10162000FFF72AFE0020C2E700200240001002401F
:10163000204500081C000020140000200448054933
:1016400000684968044AC1F30221515CC8407047F0
:101650001C000020001002403045000804480549E5
:1016600000684968044AC1F3C221515CC840704710
:101670001C00002000100240304500080E4A51684E
:101680000E4801F00C03042B11D0082B0FD10C488D
:10169000C1F38343C903C05C0AD55168084AC1F34A
:1016A0004041921E515C054A5043B0FBF1F0704737
:1016B00004494843704700000010024000127A00BD
:1016C000FE44000800093D002DE9F84F040070D0E9
:1016D0002078C04DC00749D06868C0F38100012858
:1016E00007D06868C0F38100022809D16868C00388
:1016F00006D52868800339D560680028E7D035E032
:101700006068B0F5803F0BD010B1B0F5A02F11D0BC
:10171000286820F480302860286820F4802002E0C7
:10172000286840F480302860606890B1FFF76AFB59
:1017300006460AE0286840F480202860F0E700BFF1
:10174000FFF760FB801B642873D828688003F7D5F7
:101750000CE0FFF757FB064605E000BFFFF752FB22
:10176000801B6428F0D828688003F7D420789A4E2C
:1017700080074FF001094FF0000839D5686810F074
:101780000C0F07D06868C0F38100022809D168688F
:10179000C00306D42868800714D52069012808D121
:1017A00010E02069B0B1C6F80090FFF72BFB0746A8
:1017B00005E00AE1FFF726FBC01B0228C4D8286811
:1017C0008007F7D52868616920F0F80040EAC10079
:1017D00028600DE0C6F80080FFF714FB074604E020
:1017E000FFF710FBC01B022823D828688007F7D416
:1017F000207800072CD57948A169D9B1C0F80090AC
:10180000FFF700FB074604E0FFF7FCFAC01B0228C5
:101810000FD8686A8007F7D571484FF4FA5100680D
:10182000B0FBF1F0009000BF0098411E0091FAD289
:101830000EE080E0C0F80080FFF7E4FA074604E01D
:10184000FFF7E0FAC01B022875D8686A8007F7D452
:101850002078400760D5E8690027C00008D4E8690F
:1018600040F08050E861E869012700F08050009066
:101870005C480168C90513D40168834641F480714E
:101880000160FFF7BFFA824606E000BFFFF7BAFA31
:10189000A0EB0A0064284ED8DBF80000C005F5D59F
:1018A000E06801280AD008B1052813D0286A20F082
:1018B00001002862286A20F0040002E0286A40F053
:1018C00001002862E06841F2883B98B1FFF79AFA7C
:1018D00082460BE0286A40F004002862EEE700BF71
:1018E000FFF790FAA0EB0A0159455AD8286A8007F9
:1018F000F6D50CE0FFF786FA824605E0FFF782FA9C
:10190000A0EB0A0159454CD8286A8007F6D41FB1CC
:10191000E86920F08050E861E06988B36968C1F344
:101920008101022944D00228C6F8608004D0FFF764
:1019300069FA044638E034E0FFF764FA074604E049
:10194000FFF760FAC01B02282BD828688001F7D463
:10195000206AB0F5803F05D16868A16820F40030A6
:1019600008436860D4E908010843696821F47411E8
:1019700008436860C6F86090FFF744FA044606E042
:1019800025E000BFFFF73EFA001B022809D82868AF
:101990008001F7D51BE000BFFFF734FA001B0228D7
:1019A00002D90320BDE8F88F28688001F4D40EE046
:1019B0000128F7D06868226A00F48031914204D18E
:1019C000616A00F47010884201D00120EAE700202B
:1019D000E8E700000010024000004242800442425A
:1019E0001C00002000700040F8B505004FF000001A
:1019F00016460C46009006D02CB1002269462846B7
:101A000000F019F808B10120F8BD287B2070E87BB0
:101A1000E070697B6170A97BA17056B101F028F973
:101A2000E070607801F024F96070A07801F020F98E
:101A3000A0700020F8BD2DE9F04791460C465FEA02
:101A400000084AD084B3D8F800004068400744D466
:101A5000404601F0ABF94FF461620546B0FBF2F18C
:101A6000B0FBF2F302FB13503C23B0FBF3F0B5FBE9
:101A7000F2F6607002FB1650B0FBF3F203FB1200AB
:101A8000A070182931D31820B1FBF0F7B1FBF0F2A8
:101A900000FB12102070404601F081F9411C04D077
:101AA000A84202D9461B02E017E04FF0FF36A7EB31
:101AB000071000EB4000C0EB001005EBC0152946F5
:101AC000404601F0C2F940B9701C01D0711900E024
:101AD0003146404601F0A5F910B10120BDE8F0877C
:101AE0003946404601F0CFF800E02170B9F1000F0F
:101AF0000BD0207801F0BCF82070607801F0B8F8C5
:101B00006070A07801F0B4F8A0700020E6E7000053
:101B100070B5040003D0607C002610B105E0012000
:101B200070BD2674204600F03DF802206074204607
:101B300000F00AF9042550BB204601F0FBF830BB49
:101B40002068416821F007014160A06820B1144875
:101B5000016821F0010101601148001F0168A268BD
:101B600021F46071114301606068411C04D10120BF
:101B7000FFF706FC58B1401E2268C0F30341916094
:101B8000216880B2C860204601F0EEF808B16574A3
:101B9000C5E7E67301206073A0736074002070BD18
:101BA000306C004008B50068084988420DD1FFF745
:101BB000E1FB0748C16941F00061C161C0690549A5
:101BC00000F0006000900120086008BD002800407F
:101BD000001002403C0442422DE9F0410D46040051
:101BE0003BD0C5B3207C01283AD04FF0010884F8DF
:101BF000108002206074E87872B301F030F8E0736E
:101C0000687801F02CF86073A87801F028F8A073C8
:101C1000C2B2617BE07B01F0D9F8207328702046C6
:101C200001F0C4F84FF46161B0FBF1F1002518290F
:101C30002DD91822B1FBF2F1A1EB011101EB410109
:101C4000C1EB011100EBC1163146204601F0FDF851
:101C50000427C8B90BE000E004E00120BDE8F081F2
:101C60000220FBE7E07368786073A878CFE720462E
:101C700001F095F8411C0AD0B04208D2064901444F
:101C8000204601F0CEF810B167742574E5E784F8BA
:101C9000118025740020E1E7805101002DE9F04119
:101CA0000D46040024D01DB3207C012823D04FF022
:101CB000010884F81080022060742878EAB100F0EE
:101CC000CEFF4FF4616100FB01F6687800F0C7FFBA
:101CD000C0EB001006EB8006A87800F0C0FF3518B6
:101CE0002946204601F0B1F80026042710BB0FE07A
:101CF0000120BDE8F0810220FBE74FF46161484319
:101D00006978C1EB011100EB8100A9784518E7E77C
:101D10002068416821F005014160204601F03FF84C
:101D2000411C0AD0A84208D206490144204601F0CD
:101D300078F810B167742674DAE784F81180267495
:101D40000020D6E78051010070B504000AD0206859
:101D5000416821F008014160FFF754F805464FF44F
:101D60007A7608E0012070BDFFF74CF8401BB042C6
:101D700001D9032070BD206840680007F4D5002019
:101D800070BD70B5040009D0606A002540B12561BE
:101D90006561A56294F8510040B10CE0012070BD6E
:101DA0006068B0F5827FF4D0E561F2E784F85050C6
:101DB000204600F03FF8022084F8510020680168B6
:101DC00021F040010160A088218900F4827001F4B3
:101DD00004410843A18901F400610843217C01F01A
:101DE00002010843217D01F001010843218B01F428
:101DF00000710843217F01F03801084394F8201056
:101E000001F080010843218D01F40051084321684D
:101E10000860A069042101EA104021684860206838
:101E2000C16921F40061C1616565012084F8510038
:101E3000002070BD00B585B0002100910191029194
:101E4000039100680F4988421AD10F48816941F413
:101E500080518161816901F480510491816941F06F
:101E6000040181618069694600F004000490A020AB
:101E7000009002200190032003900448FEF7CCFE5E
:101E800005B000BD003001400010024000080140D4
:101E90002DE9F84F044690F8500000269846154664
:101EA0008A4601280CD0012784F85070FEF7AAFF5B
:101EB000814694F85100B346012804D002269AE0E6
:101EC0000220BDE8F88FBAF1000F6FD0002D6DD061
:101ED000032084F85100C4F854B0C4F830A0A5869B
:101EE000E586C4F838B0A4F83CB0A4F83EB0C4F815
:101EF00044B0C4F840B0A068B0F5004F09D12068E4
:101F0000016821F0400101602068016841F48041CE
:101F1000016020680168490603D4016841F040016E
:101F20000160E068B0F5006F606803D058B3012D20
:101F300029D049E008B1012D1FD1206B216800880C
:101F4000C86006E020688168890709D5216B098887
:101F5000C160206B801C2063E08E401EE0860CE098
:101F6000FEF750FFA0EB0901414503D3B8F1FF3F55
:101F700003D006E0B8F1000F03D0E08E0028E1D1D5
:101F800025E0032635E0206B21680078087306E021
:101F90002068816889070AD5216B09780173206B55
:101FA000401C2063E08E401EE0860DE01FE0FEF73F
:101FB00029FFA0EB0901414503D3B8F1FF3F03D04E
:101FC000DFE7B8F1000FDCD0E08E0028E0D14A4610
:101FD0004146204600F04DFF08B120206065A06812
:101FE00018B92068C16880680090606D08B101264A
:101FF00001E084F8517084F850B0304661E710B5C4
:10200000401EB0F1807F01D3012010BD4FF0E024CD
:1020100060610F21601701F042FA0020A0610720E3
:102020002061002010BD000070B590F83C20012A0E
:1020300026D0012480F83C40022280F83D2003682D
:102040005A689D6822F070060A6832435A600D4B48
:1020500002689A4208D0B2F1804F05D00A4B9A42EA
:1020600002D00A4B9A4204D1496825F080031943F3
:10207000916080F83D40002180F83C10084670BD1A
:10208000022070BD002C0140000400400008004008
:1020900010B5040003D094F83D0010B107E0012012
:1020A00010BD002084F83C00204600F01FF80220FC
:1020B00084F83D00211D206800F08AFF012084F88B
:1020C000460084F83E0084F83F0084F8400084F81D
:1020D000410084F8420084F8430084F8440084F806
:1020E000450084F83D00002010BD000008B50068E0
:1020F0000649884208D10648816941F4006181613E
:10210000806900F40060009008BD0000002C0140D0
:102110000010024070B5044690F83C0000250128EC
:1021200017D0012684F83C60022084F83D00206826
:10213000826822F0770222F47F4282600868502889
:1021400038D00DDC20284FD005DC90B3102811D1F9
:102150004AE0022070BD302846D040280AD13BE03A
:1021600060282FD070280DD0B0F5805F03D0B0F577
:10217000005F12D0012584F83D60002084F83C0007
:10218000284670BDCB68D1E90121206800F056FFD8
:102190002068816841F0770109E0CB68D1E901212D
:1021A000206800F04BFF2068816841F48041816025
:1021B000E1E719E0CA684968206800F051FF502142
:1021C000206806E0CA684968206800F05AFF60216C
:1021D000206800F03DFFCEE7CA684968206800F03B
:1021E0003FFF40212068F4E7226801461046F0E7EF
:1021F00070477047F8B5016804460868CA684B69BB
:1022000010F00F0F4FF000055AD003F0010602F452
:102210009077374365D0C10705D0D10503D5616CF0
:1022200041F001016164410705D5D90703D0616C14
:1022300041F002016164810705D5D90703D0616CC3
:1022400041F004016164010707D502F02001314328
:1022500003D0616C41F008016164616C00293BD0DE
:10226000800604D5900602D5204600F0D0FF2068F5
:102270004069616CC0F3801001F008010143204601
:102280002BD000F08FFF20684069400621D52068E0
:10229000143050E8001F21F0400140E80012002AED
:1022A000F5D1E06BA8B16D494163E06BFEF74AFBE5
:1022B000002811D0E06B416B01B0BDE8F040084749
:1022C00083060ED593060CD52046BDE8F84000F0F5
:1022D0009EBF2046FFF78DFFF8BDFFF78AFF6564BC
:1022E000F8BD266B2023012E7CD1C6067AD5D606F2
:1022F00078D508684868009048694FF002064006A3
:1023000040D5E16B086840680004000CE8D0A28D5D
:102310008242E5D9E085886920282DD020680C30DC
:1023200050E8001F21F4807140E80012002AF5D126
:102330002168143151E8000F20F0010041E800024B
:10234000002AF5D12068143050E8001F21F0400128
:1023500040E80012002AF5D184F842302563206855
:102360000C3050E8001F21F0100140E80012002A54
:10237000F5D1E06BFEF7C2FA6663A08DE18D401ADD
:1023800081B22AE0A08DE18D401A81B2E08D002853
:10239000A6D00029A4D022680C3252E8000F20F405
:1023A000907042E80007002FF5D12068143050E803
:1023B000002F22F0010240E80027002FF5D184F819
:1023C0004230256320680C3050E8002F22F01002C4
:1023D00040E80023002BF5D166632046FFF708FF95
:1023E000F8BDFFE705062BD5150629D594F8410061
:1023F0002128F5D1A068B0F5805F01D12069B0B186
:10240000206A411C2162216800784860E08C401EEF
:102410000004000CE084E3D12068C16821F0800151
:10242000C1602068C16841F04001C160D8E7206AFE
:102430000088C0F308004860206A801C2062E5E73D
:102440004006CDD55006CBD5CA68204622F04002C2
:10245000CA6084F8413000F0EAF8C1E7A73000080C
:1024600070B5040004D094F84100002510B106E0D6
:10247000012070BD84F84050204600F023F824204D
:1024800084F841002068C16821F40051C1602046F1
:1024900000F01EFF2068016921F49041016120686D
:1024A000416921F02A0141612068C16841F400516D
:1024B000C1606564202084F8410084F842006563AF
:1024C000002070BD70B586B00025064600950195C8
:1024D000029503950068224988423ED121498869C6
:1024E00040F480408861886900F4804004908869E5
:1024F00040F00400886188691B4C00F004000490DF
:102500004815009002200190032003906946204660
:10251000FEF782FB2015CDE90005694620460295AD
:10252000FEF77AFB124C1148C4E900058020C4E98B
:10253000025025616561A5612046E561FEF7F8FA64
:1025400008B1FEF7A0F8F46300220121252066629D
:10255000FEF7DEFE2520FEF7CDFE06B070BD0000C2
:1025600000380140001002400008014058000240BD
:102570001002002090F84230202B01D0022070473A
:1025800021B11AB10023036300F0FEBE01207047A1
:10259000704770472DE9F843044690F841001F4604
:1025A00016460D46202802D00220BDE8F8837DB1F2
:1025B00076B100206064212084F84100FEF722FCFF
:1025C000A6848046E684A068B0F5805F02D003E070
:1025D0000120EAE7206910B12E4600250EE0002612
:1025E0000CE08021204600F017FFA0B9AEB116F82C
:1025F000010B21684860E08C401EE084E08C43467B
:102600004FF0000200970028EBD14FF04001204628
:1026100000F002FF30B10320C7E735F8020BC0F32A
:102620000800E6E7202084F841000020BDE770475D
:10263000FEE701684A69D24352050FD46FF4806205
:102640004A61002140F8301F2022427381730269E1
:1026500042F00402026101730120704700207047BC
:102660002DE9F84F0446006889460B9D016898469D
:10267000174641F4806101602068016841F480716F
:10268000016000954FF0011B0022594620460A9B2D
:1026900000F064F84FF4007A40B120680068C0058B
:1026A00001D5C4F840A00320BDE8F88F216809F0E7
:1026B000FE0008612B46284920460A9A00F096F849
:1026C000F0BB20684169806900902A4620460A993B
:1026D00000F022F940B1206C04283AD1206801684A
:1026E00041F40071016034E0FEB2B8F1010F09D08D
:1026F0002168380A08612A4620460A9900F00CF938
:102700000028E8D1206806612A4620460A9900F090
:1027100003F90028DFD12068016841F4807101606D
:1027200000950022594620460A9B00F017F8002821
:10273000B3D1216809F0FF0040F00100086100E01A
:1027400007E02B46044920460A9A00F04FF800287B
:10275000AAD00120A8E70000020001002DE9F047FF
:10276000984617460D460446C1F30746DDF820900B
:102770002AE000BFB8F1FF3F26D0FEF743FBA0EBF5
:102780000901414502D8B8F1000F1DD12068012E82
:1027900016D0806925EA00000004000C12D0002049
:1027A000B84211D1002044F8300F20216173A0738A
:1027B000216941F02001216120730120BDE8F087EB
:1027C0004069E7E70120EBE72068012E0AD0806925
:1027D00025EA00000004000C06D00020B842C9D051
:1027E0000020EBE74069F3E70120F7E72DE9F04728
:1027F000984616460D4604464FF000094FF0200A51
:10280000C1F3074723E020684069C043400515D461
:102810002068016841F40071016021686FF48060F4
:102820004861C4F8309084F83DA084F83E90216C53
:1028300041F00401216484F83C9021E0701C06D032
:10284000FEF7E0FAA0EB0800B04203D816B1012F62
:102850001FD021E02068012F15D0806925EA0000F3
:102860000004000C18D000BF44F8309F84F80DA07D
:1028700084F80E90216941F02001216184F80C90C8
:102880000120BDE8F087406925EA00000004000C43
:10289000EAD12068406901E02068806925EA0000EB
:1028A0000004000CAFD1ECE72DE9F0410025904683
:1028B0000E460446202728E04069C043C0060CD4D9
:1028C00054F8301B6FF01000486144F810596777D6
:1028D000A577206A2062257714E0FEF793FAA0EB33
:1028E0000800B04200D886B920684069C04340065D
:1028F0000BD544F8305F6773A573206940F0200062
:10290000206125730120BDE8F08120684169C94339
:102910004906D1D40020F6E770B516460D460446A8
:102920001EE02046FFF785FE08B1012070BD681C3F
:1029300016D0FEF767FA801BA84200D885B9206838
:102940004069C04300060BD5002044F8300F202119
:102950006173A073216941F0200121612073E4E7D4
:1029600020684069C0430006DBD4002070BD000031
:102970003EB5002410480094019402940D498460EF
:10298000016004730475012505614FF46021446002
:10299000C161FDF7F9FE08B172B6FEE70095CDE919
:1029A000015469460448FDF771FE002801D072B653
:1029B000FEE73EBD00240140200000202DE9F04745
:1029C00086B000254B4C0095019502950395A069B2
:1029D00040F02000A061A06900F020000490A069F0
:1029E00040F00400A061A06900F004000490A06918
:1029F00040F00800A061A069DFF8FC9000F008003A
:102A00000490002210214846FEF7F6F9DFF8ECA00A
:102A10004FF48058002241465046FEF7EDF900225F
:102A200004214846FEF7E8F9A06940F00400A061DF
:102A3000A069012400F004000490CDE90045694636
:102A400048460295FEF7E8F8022603270096CDE9EE
:102A5000017569464846FEF7DFF804208DE87100ED
:102A600069464846FEF7D8F825480096CDE90105A5
:102A700069465046FEF7D0F810208DE8710069468F
:102A80004846FEF7C9F8CDE900456946504602952B
:102A9000FEF7C2F801AACDF8008082E8700069460E
:102AA0005046FEF7B9F8C020009001AA122082E833
:102AB000910069465046FEF7AFF800220221072038
:102AC000FEF726FC0720FEF715FC18208DE87100A4
:102AD00069465046FEF7A0F8002208215046FEF74E
:102AE0008BF9002210215046FEF786F906B0BDE8AA
:102AF000F08700000010024000080140000C014077
:102B0000000021101CB500241848019416490094B7
:102B10000160611EC0E90114FEF7FAFF08B172B648
:102B2000FEE7FF208DF804008DF805008DF8060003
:102B3000012201A90D48FFF7B1F808B172B6FEE70E
:102B400001208DF800008DF801008DF8020002468A
:102B50008DF8034069460548FFF73EF8002801D08C
:102B600072B6FEE71CBD000000280040A400002053
:102B70000E4810B50C4901604FF48271416000218C
:102B80008160C1604FF400720161C0E90512C1614A
:102B90000162416281620A21C162FFF7F2F80028F6
:102BA00001D072B6FEE710BD00300140B800002031
:102BB00010B586B000241748009401940294039441
:102BC000049413490594C0E900144FF6FF71C0E95D
:102BD0000241046144618461FFF75AFA08B172B698
:102BE000FEE74FF48050009069460A48FFF792FADA
:102BF00008B172B6FEE7049404A906480594FFF7ED
:102C000013FA002801D072B6FEE706B010BD00002E
:102C1000002C0140100100200E4810B50C49016045
:102C20004FF416514160002181600C22C160C0E95F
:102C300004128161C161FFF713FC08B172B6FEE7AF
:102C400004496422BDE8104048310248FFF792BCB5
:102C50000038014058010020FEE7FEE770470109F7
:102C600001EB810100F00F0000EB4100C0B27047A2
:102C7000002102E00A38C0B2491C0A28FAD209072A
:102C800040EA116070472DE9F04104460025C07B01
:102C9000627BA37B42E0012A16D0032A14D0052AC6
:102CA00012D0072A10D0082A0ED00A2A0CD00C2ADB
:102CB0000AD0042A10D0062A0ED0092A0CD00B2ADA
:102CC0000AD0022A0DD028E01F2B0CD30C2A05D1E4
:102CD00001221346401C20E01E2B04D30123521C6A
:102CE0001BE01C2B02D203F1010316E011D183B2C9
:102CF0009E0710D16426B3FBF6F706FB173636B9EC
:102D00004FF4C876B3FBF6F706FB17331BB91D2348
:102D100003E01D2B01D1032201236D1C8D42BAD388
:102D2000D1B2E0736173DAB2A27300F04FF820738E
:102D3000BDE8F08170B50446FEF764F805464FF42F
:102D40007A7606E0FEF75EF8401BB04201D9032018
:102D500070BD206840688006F4D52068416841F065
:102D600010014160002070BD70B5044600684168E4
:102D700021F010014160FEF745F805464FF47A76E0
:102D800007E000BFFEF73EF8401BB04201D9032028
:102D900070BD206840688006F4D5002070BD0168D1
:102DA000086A496A89B241EA00407047006881694F
:102DB0008AB2C1698BB2816989B28A4203D0C06983
:102DC00061F31F40704743EA02407047F0B5642446
:102DD000C1EBC1030927A500072603EB0113032953
:102DE000B3FBF7F100F5FA60114401440AD2401E2A
:102DF000B0FBF4F201EB9001B0FBF5F0891A084446
:102E0000001D08E0B0FBF4F201EB9001B0FBF5F01F
:102E1000891A0844801CB0FBF6F106FB1100C0B211
:102E2000F0BD70B50D4606460024FFF783FF48B994
:102E30003168280C08623168A8B248623046FFF752
:102E400093FF00B10124204670BD70B50D460646C3
:102E50000024FFF76FFF48B93168280C886131689A
:102E6000A8B2C8613046FFF77FFF00B101242046B9
:102E700070BD38B50B46009204460022802100F058
:102E800009F8002804D0606D40F020006065032040
:102E900038BD00002DE9F8431E4691468846044699
:102EA000089DFDF7AFFF401B351AFDF7ABFF074646
:102EB00025480068C0F3CB30684338E0701C37D039
:102EC000FDF7A0FFC01BA84203D215B1009860B364
:102ED0002CE02068416821F0E00141606068B0F5B5
:102EE000827F0BD1A068B0F5004F02D0B0F5806FA3
:102EF00004D12068016821F040010160A06AB0F5AA
:102F0000005F09D12068016821F400510160206848
:102F1000016841F400510160012084F85100002053
:102F200084F850000320BDE8F8830025401E00907F
:102F30002068816838EA010004D000214945BDD1EC
:102F40000020F0E70121F9E71C0000207047FEF7A0
:102F500079B930B593B028216846FDF70EFA1421EF
:102F60000AA8FDF70AFA00240F94109403254FF4E1
:102F70008030CDE90050012004901020119405907C
:102F8000129407946846FEF79FFB08B172B6FEE7FD
:102F90000F20CDE90A044FF48060CDE90C400021F8
:102FA0000AA80E94FEF7B4FA08B172B6FEE74FF421
:102FB0004070CDE90F504FF4004011900FA8FEF77C
:102FC00031FA002801D072B6FEE713B030BD704769
:102FD000F0B50268164B174C174D4FF080479842DA
:102FE00005D0B84203D0A04201D0A84203D122F0BC
:102FF00070064A683243984205D0B84203D0A042D6
:1030000001D0A84203D122F44074CA6822434C691B
:1030100022F08002224302608A68C2620A688262E9
:10302000984201D10969016301214161F0BD0000AD
:10303000002C0140000400400008004010B58468E6
:1030400042EA032224F47F440A432243826010BDF3
:10305000826822F070020A4342F0070181607047E3
:1030600010B5036A046A24F001040462846924F040
:10307000F00444EA021423F00A020A438461026263
:1030800010BD10B5036A046A24F010040462846958
:1030900023F0A00324F4704444EA023243EA01110D
:1030A0008261016210BD10B5406A0021C185C184F2
:1030B000FFF79FF810BD70B5446A2068406994F826
:1030C0004110C0F3C0100025212904D118B1E584B6
:1030D000204600F08EF82068406994F84210C0F352
:1030E0008010222904D118B1E585204600F05AF855
:1030F000606C40F0100060642046FFF77AF870BD05
:1031000010B50146406A096809684FF00002890657
:103110002ED4C28501680C3151E8003F23F480733E
:1031200041E80034002CF5D10168143151E8003F2A
:1031300023F0010341E80034002CF5D1016814317B
:1031400051E8003F23F0400341E80034002CF5D162
:10315000202180F84210016B012909D101680C314E
:1031600051E8003F23F0100341E80034002CF5D172
:103170004263016B012902D0FFF70AFA10BD818D6D
:10318000FFF736F810BD10B5406A01214163016BAD
:10319000012902D0FFF7FDF910BD818D4908FFF725
:1031A00027F810BD01680C3151E8002F22F490720D
:1031B00041E80023002BF5D10168143151E8002FBC
:1031C00022F0010241E80023002BF5D1016B012917
:1031D00009D101680C3151E8002F22F0100241E8BA
:1031E0000023002BF5D1202180F84210002101633B
:1031F000704701680C3151E8002F22F0C00241E80D
:103200000023002BF5D1202180F84110704708B52C
:1032100090F84210222901D0022008BD82684FF4A4
:1032200080539A4201D1016921B1816A9A421BD02F
:103230004AB10AE00268816A5268C2F308020A8051
:10324000816A891C08E0026972B10268526802F062
:103250007F020A70816A491C8162C18D491E09047E
:10326000090CC18503D01BE002685268F1E70168D0
:10327000CA6822F02002CA600168CA6822F480721B
:10328000CA6001684A6922F001024A61202180F87F
:10329000421000214163026B012A03D0FFF778F945
:1032A000002008BD016301680C3151E8002F22F0B5
:1032B000100241E80023002BF5D101680A68D2060C
:1032C00002D50A6849680091818DFEF791FFE7E712
:1032D00070B5044600680169E26821F44051114369
:1032E00001612169A0680843616908432168CA68CF
:1032F00041F20C639A430243CA6020684169A269A3
:1033000021F44071114341611E492068884202D175
:10331000FEF7A4F901E0FEF791F900EBC00101EB23
:103320000012606864218000B2FBF0F3B3FBF1F39C
:103330006FF018067343B2FBF0F5B2FBF0F605EB45
:103340008305322303EB0515B5FBF1F5B6FBF1F66A
:1033500005F0F00505EB0615B2FBF0F6B2FBF0F058
:10336000B0FBF1F06FF01802504306EB800003EB66
:103370000010B0FBF1F0216800F00F0028448860D5
:1033800070BD00000038014038B581620446828576
:10339000002013466064222284F84220E56B1B4A19
:1033A000AA62E56B1A4AEA62E56B1A4A2A63E26B83
:1033B00050630A462168E06B091DFDF7E7FB2068B2
:1033C000016840680090206948B120680C3050E8DE
:1033D000001F41F4807140E80012002AF5D12068F6
:1033E000143050E8001F41F0010140E80012002AAB
:1033F000F5D12068143050E8001F41F0400140E84A
:103400000012002AF5D1002038BD0000013100086B
:1034100087310008B73000082DE9F041984617467B
:103420000E460446069D27E0681C25D02DB1FDF709
:10343000E9FCA0EB0800A8421ED920680C3050E837
:10344000001F21F4D07140E80012002AF5D1206855
:10345000143050E8001F21F0010140E80012002A5A
:10346000F5D1202084F8410084F84200002084F83F
:1034700040000320BDE8F0812068006836EA0000C3
:1034800004D00020B842CFD00020F3E70120F9E7B4
:103490000148FEF7AFBE000058010020FEE7090713
:1034A000090E002804DB00F1E02080F800147047CA
:1034B00000F00F0000F1E02080F8141D70472DE9A6
:1034C000F0414F1E00EBC7010446D1E9000115464B
:1034D0001E4637F006020DD02A46334600F098FD0E
:1034E0007F1E04EBC703D3E9002300F0FBFA37F09B
:1034F0000602F1D1022F25D0042F13D0062F18BFBA
:10350000BDE8F0812A46334600F082FDD4E90A2363
:1035100000F0E8FA2A46334600F07AFDD4E90823A1
:1035200000F0E0FA2A46334600F072FDD4E90623A3
:1035300000F0D8FA2A46334600F06AFDD4E90423A5
:1035400000F0D0FA2A46334600F062FDD4E90223A7
:1035500000F0C8FA2A46334600F05AFDD4E90023A9
:10356000BDE8F04100F0BEBA002213461046014902
:1035700000F074BB0000F03F012200F06FBF00229A
:1035800013461046114600F069BB4218402A02D982
:10359000C1F1400080B270471CB5002269461D4849
:1035A000FEF749FA002201A91A48FEF71DFA9DF814
:1035B00002000A24B0FBF4F104FB1101012000F029
:1035C00043FA9DF80200B0FBF4F1022000F03CFA4F
:1035D0009DF80100B0FBF4F104FB1101032000F0A1
:1035E00033FA9DF80100B0FBF4F1042000F02CFA4E
:1035F0009DF80000B0FBF4F104FB1101052000F080
:1036000023FA9DF80000B0FBF4F1062000F01CFA4C
:103610001CBD0000A40000202DE9F04DC84A002484
:1036200090B0914205DA21F00043934201D805D1D0
:1036300020B110B0BDE8F04DFFF79EBFB1F5801F7F
:103640001BDA53EA000209D0002911DA0120FCF745
:10365000C3FE10B0BDE8F04DFFF791BF0220FCF7AC
:10366000BBFEFFF781FF10B081F00041BDE8F08D97
:103670006FF03504362200F0F1FE04EB2152C1F365
:103680001308B049A2F2FF33414401F4801282F0E2
:103690007F6103EB225281F04051009241EA080120
:1036A0000022A94B00F0BEFD044608F10200A74E1F
:1036B000C0F313000D467E44032867D2D6E90023E9
:1036C000204600F023FC1ED10098002802BFD6E956
:1036D000000110B0BDE8F08D00F083FC07460C46F9
:1036E0009B4A9C4B00F094FC06460D469A4A9B4B25
:1036F0003846214600F08CFC10B032462B46BDE81F
:10370000F04D00F0EFB94FF05532954B2046294669
:1037100000F07EFC0022934B00F078FD06460F4639
:1037200022462B461046194600F072FC32463B46B4
:1037300000F06EFC064600980F46F0B100F051FC18
:1037400080468A46824A834B00F062FC32463B4602
:1037500000F05CFD22462B4600F064FD05460C4659
:103760007D4A7E4B4046514600F052FC10B02A463E
:103770002346BDE8F04D00F055BD0B4610B0324673
:1037800020462946BDE8F04D00F04CBD00224FF028
:103790008043204600F0A6F902460B462046294603
:1037A00000F05CFA06460F46009800F01AFCCDE9DE
:1037B000040132463B461046394600F029FC0C9085
:1037C00069480C9A4044019009910B46104600F05C
:1037D0001FFC8246024665488B46C8F151080B46DD
:1037E00008F5D72803217844FFF769FE52465B4667
:1037F00000F00EFC0A905E480D9152465B46042193
:103800007844FFF75CFE099B0C9A00F001FC8446AB
:1038100001980D9B40EA080860460A9A00F062F998
:1038200083460891B8F1000F4EDD4FF0FF3220467D
:10383000294600F013FE22462B4600F0E9FB8046A5
:1038400000988A4660B3DDE90401414A414B00F02B
:10385000DFFB099100905A4640465146089B00F014
:1038600041F932463B4600F0D3FB099B009A00F039
:1038700039F94246534600F0C9FC22462B4600F077
:10388000D1FC04460D46DDE90401334A334B00F018
:10389000BFFB10B022462B46BDE8F04D00F0C2BC85
:1038A0005A464046089B00F01DF932463B4600F060
:1038B000AFFB4246534600F0A9FC10B022462B460F
:1038C000BDE8F04D00F0A2BC009840B3DDE9040172
:1038D0001F4A204B00F09CFB80468A465A462046F1
:1038E0002946089B00F09EFC32463B4600F090FBC8
:1038F0004246534600F096FC22462B4600F092FCCE
:1039000004460D46DDE90401134A144B00F080FB28
:1039100010B022462B46BDE8F04D00F083BC0B46AC
:103920005A462046294600F07DFC32463B4600F0D0
:103930006FFB10B022462B46BDE8F04D00F066BC90
:103940000000F07F645F09000000F03FB60E000049
:10395000763C7935EF39EA3D0000E0FE422EE63F45
:103960005555D53F0000E03F86EBF9FF4E0D0000B6
:103970004C0D000086B0FDF76DFCFFF7EAFAFFF78B
:103980001DF8FFF749F9174815494FF480420160C7
:103990001549416000218160C0E9031241618161E4
:1039A000C1610162FDF734FA08B172B6FEE7FFF7B4
:1039B000A9F8FFF7DDF8FFF7FBF8FEF7D9FF0720BE
:1039C00000F032F800F028F800F06AF814220749F5
:1039D0006846FCF7A0FC00BFFFF7DEFDFCE7000037
:1039E0000054004050000020801A0600E8440008FF
:1039F00070B5084800250078FF2800D10F25002465
:103A0000601CC0B2294600F01FF8641C082CF7DBCC
:103A100070BD0000000000200248FF210170092055
:103A200000F012B80000002010B5044600F033F892
:103A300007210B2000F008F8204600F025F8BDE82B
:103A40001040FFF7D5BF000073B50D4C00221021C8
:103A50002046FDF7D1F94FF0FF352B46012269468C
:103A60000848FEF715FA2B46012201A90548FEF782
:103A70000FFA012210212046FDF7BEF97CBD00009F
:103A800000080140B80000200F2803D801460A2092
:103A9000FFF7DABF704701210C20FFF7D5BF000008
:103AA00008B5002104236A460846FCF799FD08A1E1
:103AB0000B48009AFCF78CFB0948FCF70DFC084901
:103AC00082B24FF0FF33A1F1AC00FEF763FD08BDF9
:103AD0004C6173742054656D703A2025640A0D00A2
:103AE0000402002010B591EA030F48BF83F00043A1
:103AF00000F1A083841A71EB030C05D2121943EB79
:103B00000C03001B61EB0C01DFF824E14FEA1154B8
:103B1000A4EB135C1EEA430F18BF9EEA445F73D008
:103B200023EA0E03DCF1200E21EA045143F4801352
:103B300032D322FA0CFE10EB0E0023FA0CFE41EBFE
:103B40000E01CCF1200E03FA0EFE10EB0E0051F127
:103B50000001B1F5801FCCF1200E32D201EB0451EF
:103B600012FA0EF2BDE8104058BF7047401C38BF33
:103B70005FEA420218BF7047002814BF20F001001E
:103B800041F100014FEA410313F5001F38BF7047B0
:103B9000A1F1C04100F034BB012A43EB0302ACF1B8
:103BA000200CDCF11F0E32BF4FF0000E23FA0CF395
:103BB00010EB030041EB0451B4EB115FD0D0A1EB4B
:103BC000045101F5801149085FEA300001EB04510E
:103BD0000ED350F1000038BF12FA0EFE08D1BDE836
:103BE0001040C9E7401C38BF5FEA4202CAD1C3E7B0
:103BF000BDE810404FEA410313F5001F38BF70477E
:103C0000A1F1C04100F0FCBA9EEA445F08D011EA7D
:103C10005E0FBDE8104004BF01F000410020704776
:103C2000BDE8104070B500F09DFA00BF64FBBE3ED9
:103C30000000E0FF02494FF0000000F0DDBB00BFD4
:103C40000000F87F491058BFC1F140415B1058BFD8
:103C5000C3F140438B42EFF3008070472DE9C04130
:103C600030B4DFF8A0C23CEA111418BF3CEA1314C8
:103C700000F0EC8081EA03051CEA111444EAD574D3
:103C800018BF1CEA131500F0C780A4EB05044FF021
:103C9000004545EAC12145EAC32341EA505143EAC0
:103CA000525304F17F74994204F500344FEAC02066
:103CB0004FEAC22208BF904200F09C804FEA136591
:103CC0000FF24016765D4FEA134506FB05F7C7F184
:103CD000807706FB07F74FEAD737A7FB03687642E2
:103CE000C8F58038A7FB06CE38BFA8F1010807FB4E
:103CF00008E64FF0000EA6FB028CE6FB03CEDCF1DB
:103D0000000CCEF1004E38BFAEF1010EA6FB0C58F0
:103D10004FF000074FF00005E6FB0E87A1FB08C639
:103D2000A0FB07CE16EB0E0645F10005E1FB07658B
:103D300015F1E04E7EBFA4F580345FEA46066D4182
:103D400016F1800745F100054FEA17274FEA06668E
:103D500047EA0567A6F1DE46B6F1805F4FEA152512
:103D60001FD9384624F0010C05EBC471BCF1FE6F7D
:103D700001EB0C1102D8F0BCBDE8008124425CBF0D
:103D800001F5801E9EEAC47F02D4F0BCBDE800812C
:103D9000244238D4F0BCA1F1C041BDE8004100F09C
:103DA0002FBA4FEAD22242EA43524FEAD323A7FB6B
:103DB00002864FEAD02040EA415007FB03661EEA24
:103DC0000E0F4FEAD12105FB026658BFA6EB005645
:103DD000B6EB00564FEA520E4EEAC37E18EB0E0EBB
:103DE00056EB530EBDD518EB02085E417F1C55F112
:103DF0000005B6E74FF480154FF000074FF00006BE
:103E00004FF00008ADE7F0BC4FF0000001F1C041F9
:103E100001F00041BDE8008111EA0C1F0CEA131506
:103E200000D00CE013EA0C1F00F025804FF00000DA
:103E3000F0BC81EA030101F00041BDE80081F0BC63
:103E4000BDE8004181EA030100F0DAB9F0BCBDE849
:103E5000004170B500F086F9097EFC3E00F007B81D
:103E600081EA03014FF0000001F00041704781EA50
:103E7000030100F0C5B9F0BCBDE800414FF00000FF
:103E800021497047FFFDFBF9F7F5F4F2F0EEEDEB99
:103E9000E9E8E6E4E3E1E0DEDDDBDAD8D7D5D4D348
:103EA000D1D0CFCDCCCBCAC8C7C6C5C4C2C1C0BF94
:103EB000BEBDBCBBBAB9B8B7B6B5B4B3B2B1B0AF9A
:103EC000AEADACABAAA9A8A8A7A6A5A4A3A3A2A17E
:103ED000A09F9F9E9D9C9C9B9A9999989797969539
:103EE00095949393929191908F8F8E8E8D8C8C8BD5
:103EF0008B8A89898888878786858584848383825D
:103F0000828181800000FF070000F87F51EA030CE6
:103F100017D41CF5801F58BFBCF5801F00F1068028
:103F2000994218BF704708BF9042704707D711F5F4
:103F3000801F58BF13F5801F19D4994270478942DA
:103F400070471CF5801F08D5BCF5801FF7D58B4244
:103F500018BF704708BF824270474FF4001C1CEB2B
:103F6000410F38BF1CEB430F01D28B42704770B535
:103F700000F0F8F8922449004FF000514FF08053C0
:103F8000FFF760BE4FEA41034FEA5353A3F5806346
:103F9000D3F11E03C8BFD3F1210C0CDD4FF000425A
:103FA00042EAC12242EA505232FA03FC8CEAE17C36
:103FB000ACEBE1707047102BC4BF0020704703F5D5
:103FC000787CBCF1FF3F04D06FF0004282EA210010
:103FD000704770B500F0C6F8499224800020704701
:103FE000F2E710F0004248BF4042B0FA80F310FA06
:103FF00003F10AD0C3F11D0303F580634FEA41507A
:1040000002EB035202EBD12170474FF000007047E2
:10401000DFF848C170B51CEA111E1EBF1CEA13155B
:104020009EEA0C0F95EA0C0F00F06F8081EA030402
:1040300023EA4C134EEAD47E21EA4C1141F480115C
:1040400043F48013AE44A1FB024CA0FB0365AEF128
:104050007F7E361955EB0C05A1FB034C4CF1000398
:10406000A0FB021C16EB0C06654153F1000309424C
:1040700018BF46F0010613F4007F0BD14FEA03315D
:104080004FEA0530340341EA155140EA16506FF00B
:1040900003020AE04FEAC3214FEAC520F40241EAD5
:1040A000555140EA56506FF0020202EB2E4201EBEE
:1040B000025585EACE710AD05FEA440C18BF24F09D
:1040C000004450F1000041F1000120EAD47040F2B8
:1040D000FE7C624500D270BDA84214BF4FF0804400
:1040E0004FF04044002E08BF0024BEF1806FA8BFEF
:1040F000A1F1C041BDE8704080F282804FF0000025
:1041000001F1C04101F0004170479EEA0C0F0CEA3A
:10411000131518BF95EA0C0F06D04FF0000081EA86
:10412000030E0EF0004170BD00F01CF88900013E46
:1041300000F007B800F009B84FEA430C5FEA5C5C96
:1041400008D081EA030100F05BB84FEA410C5FEA56
:104150005C5CF6D14FF00000014970470000FF079A
:104160000000F87F0EF1020E2EF0030E5EF8046BD5
:10417000364205D4012A43EB030515F5001F12D87A
:10418000012841EB010C1CF5001F0CD80ED14FEAA1
:10419000D17C15F5001F0CEB4C0C0CF1020C08BF88
:1041A0004CEBD37C04E04FF0080C01E04FEAD37CE9
:1041B0000CEB4C0526FA05F606F00706B6F1040CE2
:1041C00006D20EEB860CBDE870404CF0010C604747
:1041D000DFE80CF0090B02024FF000414FF0000045
:1041E000A1F5002170BD19461046012851EB0104CC
:1041F00018BFD4F5001484BF002001F0004170BD49
:104200000808A0F500114FEA3101704791EA030F49
:1042100010B581F000413FF56DAC83F0004300F034
:1042200009B8000010B591EA030F48BF83F00043BE
:104230003FF560AC841A71EB030C07D212198CF0B5
:10424000004C43EB0C03001B61EB0C01DFF8A4E115
:104250004FEA1154A4EB135C1EEA430F18BF9EEA09
:10426000445F00F0B08023EA6E03524221EA045119
:10427000C3EB6E0338BF5B1EDCF1200E25D322FAA0
:104280000CFE10EB0E0043FA0CFE41EB0E01CCF1DC
:10429000200E03FA0EFE10EB0E0051F10001CCF1DE
:1042A000200E29D412FA0EF201EB0451BDE81040A1
:1042B00058BF7047401C1CBFB2F1004F7047002828
:1042C0000CBF491C20F00100704712EB020E43EBBB
:1042D000030218BF4FF0010E4EEA4202ACF1200C6F
:1042E000DCF11E0E54D943FA0CFE10EB0E0051F116
:1042F000FF31CCF11E0ED5D50EF1010E12FA0EFED5
:10430000404141EB010101EB445C5FEA5C5C10D988
:1043100010EBDE7001EB045138BFBEF1004FBDE879
:10432000104018BF704700280CBF491C20F0010046
:10433000704730D24FEAD42C11F5001124F40064F8
:104340001BD0B1FA81F20B3AA41AA41ED2F12003B9
:10435000914030FA03F31943904001EBCC71002CEB
:1043600001EB0451BDE81040A8BF704701F1C04106
:104370004FF0000001F000417047B0FA80F310FAEE
:1043800003F100D110BDE41A173C4805C90AE4E75F
:1043900001EB045110BD491001EB0451BDE8104080
:1043A0004FEA300002E04FF0000170474A0008BFBA
:1043B0000042F8D0B2F5001F28BF704701F000415D
:1043C0004FF0000070479EEA445F07D011EA5E0F8D
:1043D000BDE8104004BF002100207047BDE8104038
:1043E00070B5FFF7BFFE00BF40DFF63E83F000412F
:1043F000104670470000E0FF0CF00F03092B08BFC8
:10440000082000F059800A2B0BD0082B18BF7047EA
:1044100008BF1CF0400F0AD04FF000004FF0000121
:1044200070471CF0400F18BF4FF0004070471CF061
:10443000100F08D020F0704300F07F4242EAD30111
:104440004FEA4370704700F0604021F07F4242EA3B
:10445000000201F07F4040EA727070474FF0FF0C9D
:104460004CF4E06C1CEA11531CBF9CEA030C94450D
:10447000C2BFDA4201EB02517047002B0DD0BCF1F4
:10448000000F0FD0002A01F00041A4BF41F0E0412D
:1044900041F07F614FF00000704701F000414FF0A4
:1044A0000000704750EA01334FF09B0C18BF4CF0EE
:1044B000806C7FF4BFAB70471CF4801F11D01CF4DC
:1044C000E02F03D06FEACC31490070474FF04050E5
:1044D000EFF3008222F0704242EA000282F3008889
:1044E00070474FF00000704753544D3332204865F9
:1044F0006C6C6F2021210D0A0000000001020203F4
:104500000405060708090A0B0C0D0E0F1010010216
:1045100002030405060708090A0B0C0D0E0F101004
:104520000000000000000000010203040607080963
:10453000000000000102030404FA97999999D93FF9
:10454000AF788E1DC571CC3F9FC678D0099AC33F06
:10455000935555555555E53F599322942449D23FDB
:10456000DE03CB966446C73F44523EDF12F1C23FA2
:104570000000000000000000984500080000002036
:104580002000000028010008B84500082000002095
:104590009808000044010008007E306D79335B5FAD
:1045A000707F7B010000000001000000100000008F
:0845B000000000000024F400EB
:04000005080000ED02
:00000001FF
